:100000000C94CA000C94F2000C94F2000C9492042C
:100010000C94A6040C949C040C94F2000C94F20032
:100020000C94F2000C94F2000C94F2000C94F20088
:100030000C94F2000C94F2000C94F2000C94F20078
:100040000C94F0110C94F2000C94DA030C94B403A9
:100050000C94F2000C94F2000C94F2000C94F20058
:100060000C94F2000C94F200434F4E4E4543540D55
:100070000A00434C4F5345440D0A00415444002BA1
:10008000434C49503A0042555359004E4F2043418A
:100090005252494552002B434F4C503A0052494E60
:1000A000470041542B5149434C4F534500434C4F5B
:1000B0005345440000000000240027002A000000EF
:1000C0000008000201000003040700000000000017
:1000D0000000415448004154410041542B434C43DB
:1000E000430041542B514953455256455200415407
:1000F0002B51494C504F52543D22544350222C0016
:1001000041542B51494C4F4349500041542B434DCE
:1001100047443D0041542B434D474C3D22524543FB
:1001200020554E52454144222C310041542B434D21
:1001300047533D2200434F4E4E4543540D0A004164
:10014000542B51494F50454E3D0041542B51494489
:100150004E5349503D0000000000230026002900B6
:1001600000000000250028002B00040404040404FF
:100170000404020202020202030303030303010256
:100180000408102040800102040810200102040825
:100190001020731411241FBECFEFD8E0DEBFCDBFF7
:1001A00013E0A0E0B1E0ECE8F7E302C005900D92A7
:1001B000AC32B107D9F725E0ACE2B3E001C01D9243
:1001C000AF34B207E1F710E0CAECD0E004C02197E9
:1001D000FE010E94B91BC93CD107C9F70E94141641
:1001E0000C94C41B0C940000FC01538D448D252FEE
:1001F00030E0842F90E0821B930B541710F0CF96C1
:10020000089501970895FC01918D828D981761F0F2
:10021000828DDF01A80FB11D5D968C91928D9F5F3D
:100220009F73928F90E008958FEF9FEF0895FC01E8
:10023000918D828D981731F0828DE80FF11D858D9B
:1002400090E008958FEF9FEF0895FC01918D228D2E
:10025000892F90E0805C9F4F821B91098F739927B3
:1002600008958CE293E00E94250121E0892B09F496
:1002700020E0822F0895FC01848DDF01A80FB11DBD
:10028000A35ABF4F2C91848D90E001968F739927CC
:10029000848FA689B7892C93A089B1898C918370AA
:1002A00080648C93938D848D981306C00288F389A3
:1002B000E02D80818F7D80830895EF92FF920F93D0
:1002C0001F93CF93DF93EC0181E0888F9B8D8C8D02
:1002D000981305C0E889F989808185FD26C0F62E2E
:1002E0000B8D10E00F5F1F4F0F731127E02E8C8DC9
:1002F000E8120CC00FB607FCFACFE889F9898081B3
:1003000085FFF5CFCE010E943B01F1CF8B8DFE0121
:10031000E80FF11DE35AFF4FF0829FB7F8940B8F5F
:10032000EA89FB89808180620AC09FB7F894EE89D0
:10033000FF896083E889F989808183708064808384
:100340009FBF81E090E0DF91CF911F910F91FF90CF
:10035000EF900895CF93DF93EC01888D8823C9F047
:10036000EA89FB89808185FD05C0A889B9898C91BE
:1003700086FD0FC00FB607FCF5CF808185FFF2CF59
:10038000A889B9898C9185FFEDCFCE010E943B01F0
:10039000E7CFDF91CF91089580E090E0892B29F09D
:1003A0000E94310181110C94000008950895DC0130
:1003B000ED91FC910280F381E02D61E1099420E050
:1003C00001972FEF8F3F9207D9F70895CF93DF93CF
:1003D000FC0120893189232B51F1EC010190F0813E
:1003E000E02D0280F381E02D613149F467E7099542
:1003F000E881F9810280F381E02D6EEE14C0633153
:1004000049F467E70995E881F9810280F381E02DDD
:100410006CEE09C0673741F40995E881F9810280E3
:10042000F381E02D68E8CE01DF91CF91099480E05F
:1004300090E0DF91CF9108952091E0033091E103A6
:10044000232B79F02091E2033091E303232B61F019
:100450002091E4033091E503232B81F422E030E086
:1004600005C020E030E002C021E030E0220F331F61
:10047000F901E353FC4F0296948B838B0895FC01A2
:10048000778366830895CF93DF93EC01E881F98148
:100490000684F785E02D09958E819F81DF91CF91AC
:1004A0000895089580E090E0089581E02091DE03B2
:1004B0003091DF032530310509F080E0089581E0B7
:1004C0002091DE033091DF032530310509F080E013
:1004D000089580E090E008958F929F92AF92BF922E
:1004E000CF92DF92EF92FF920F931F93CF93DF9300
:1004F0007C018B016C0182E0C80ED11C4701E5E054
:100500008E0E911CC0E0D0E0F60141916F0150E0E9
:1005100060E070E02AE0C8010E943A125C016EE2DD
:10052000C8010E9483128A0D9B1DC80FD91FC814D1
:10053000D90451F7F701458150E060E070E02AE00E
:10054000C8010E943A128C0F9D1FDF91CF911F911D
:100550000F91FF90EF90DF90CF90BF90AF909F9062
:100560008F900895CF93DF93EC0160E08E810E941D
:10057000950C61E08E810E94950C60E08E810E9456
:10058000950C8BE891E00197F1F7DF91CF910895F9
:10059000DF92EF92FF920F931F93CF93DF93EC01C3
:1005A000D62EEFB6F8940E94600C8889998905963A
:1005B0000E94DF0108E010E0FF24F3948D2D8F21CD
:1005C00039F0EE81FF8190818D81892B808303C07A
:1005D000CE010E94600C888999890E94DF01FF0C7E
:1005E0000150110959F7EE81FF8190818D81892B8E
:1005F0008083EFBE888999890E94DF0181E090E0C5
:10060000DF91CF911F910F91FF90EF90DF900895B0
:10061000CF93DF93CDECD3E07F836E83FC015583D2
:1006200044831A8621E02B879C012E5F3F4F3A8F2F
:10063000298F2BE030E03D872C871F86188A0E9487
:10064000CC0B8A8590E0DF91CF910895CF93DF9313
:10065000CDECD3E01A8621E02B879C012E5F3F4F23
:100660003A8F298F2AE030E03D872C871F86188A31
:100670000E94260C8A8590E0DF91CF910895CF9358
:10068000DF93CDECD3E01A8621E02B879C012E5F0F
:100690003F4F3A8F298F29E030E03D872C871F8616
:1006A000188A0E94EC0B8A8590E0DF91CF91089523
:1006B0000F931F93CF93DF93EC018B0160E08BE7E7
:1006C00090E00E943A09B8018FEC93E00E948A12F0
:1006D00064ED71E08FEC93E00E948A12E881F98169
:1006E0000484F585E02D61E070E0CE01099581E09C
:1006F00090E0DF91CF911F910F9108950E942B11EF
:100700008091D70390E00895CF93DF93CDECD3E0B1
:10071000798768879C012E5F3F4F3A8F298F1A8611
:1007200021E02B8724E130E03D872C871F86188A43
:100730000E94360B8A8590E0DF91CF910895611574
:10074000710579F0FB0101900020E9F73197AF01C5
:10075000461B570BDC01ED91FC910280F381E02DEB
:10076000099480E090E008951F920F920FB60F92C7
:1007700011242F933F934F935F936F937F938F93A6
:100780009F93AF93BF93EF93FF938CE293E00E940C
:100790003B01FF91EF91BF91AF919F918F917F911D
:1007A0006F915F914F913F912F910F900FBE0F90DE
:1007B0001F9018951F920F920FB60F9211242F932E
:1007C0008F939F93EF93FF93E0913C03F0913D0350
:1007D0008081E0914203F091430382FD12C0908139
:1007E000809145038F5F8F7320914603821751F0EC
:1007F000E0914503F0E0E45DFC4F958F8093450365
:1008000001C08081FF91EF919F918F912F910F9067
:100810000FBE0F901F901895CF92DF92EF92FF922C
:100820000F931F93CF93DF936C017C0187E0E80E59
:10083000F11CC0E0D0E0062F10E0B8010C2E02C081
:10084000759567950A94E2F76170F70181917F01D0
:100850000E94950C2196C430D10579F7C601DF912D
:10086000CF911F910F91FF90EF90DF90CF900C945C
:10087000B202CF92DF92EF92FF920F931F93CF932A
:10088000DF93EC01F62E642F8C810E94950C8D81F4
:100890008F3F19F060E00E94950C8F850F2D10E0BE
:1008A00084FF25C06E0187E0C80ED11CE12CF12C1D
:1008B000B8010E2C02C0759567950A94E2F7617035
:1008C000F60181916F010E94950CFFEFEF1AFF0A6C
:1008D00088E0E816F10461F7CE01DF91CF911F9116
:1008E0000F91FF90EF90DF90CF900C94B202B8017F
:1008F00084E0759567958A95E1F7CE010E940C0416
:100900006F2DCE01DF91CF911F910F91FF90EF904E
:10091000DF90CF900C940C0441E00E94390481E0F8
:1009200090E008951F920F920FB60F9211240F902E
:100930000FBE0F901F9018951F920F920FB60F9237
:1009400011240F900FBE0F901F9018951F920F92B9
:100950000FB60F9211240F900FBE0F901F90189595
:1009600081E090E00C948111089580E090E008957A
:10097000909100048091FF03891728F4809100046E
:100980009091FF0305C0809100049091FF0380586F
:10099000891B39F0E091FF03F0E0E353FC4F86A997
:1009A00001C080E0082E000C990B08950895089569
:1009B000CF92DF92EF92FF92DB011296CD90DD9005
:1009C000ED90FC901597FC01C186D286E386F486F3
:1009D0001092D4031092D3030190F081E02D04848F
:1009E000F585E02D60E070E0FF90EF90DF90CF9014
:1009F000099480E0089580E090E00895089580E0F3
:100A000090E00895CF93DF93FC011682CDECD3E004
:100A10009C012E5F3F4F3A8F298F1A8621E02B874A
:100A200026E030E03D872C871F86188A0E94520AF4
:100A30008A8590E0DF91CF9108952091DE03309177
:100A4000DF03235031092230310518F082E090E0B5
:100A500008957093D4036093D30302969093E703B1
:100A60008093E6031092D70381E08093D80384E05B
:100A700090E09093DA038093D9031092DC031092F4
:100A8000DD030E94190A8091D70390E00895CF9367
:100A9000DF93EC0102969093E7038093E6031092B4
:100AA000D70381E08093D80385E090E09093DA0348
:100AB0008093D9031092DC031092DD030E94050B92
:100AC000E881F9810088F189E02DCE010995892B13
:100AD00039F464E670E080E090E00E94000DF0CF11
:100AE0008091D70390E0DF91CF9108950F931F93EA
:100AF000CF93DF938C01C5E0D0E080910004809318
:100B0000FF038CEE93E00E94D7016AE070E080E082
:100B100090E00E94000D219781F7C8010296909302
:100B2000E7038093E6031092D70381E08093D80314
:100B300087E090E09093DA038093D9031092DC036E
:100B40001092DD03C801DF91CF911F910F910C949A
:100B5000C80ACF938091FF03909100048150891BB4
:100B60008F7731F19091FF0380910004981771F015
:100B7000E091FF03F0E0E353FC4F86A99091FF035F
:100B80009F5F9F779093FF03C82F01C0C0E08091C3
:100B9000FF03909100048150891B8F77843621F4E4
:100BA0008CEE93E00E94D7018C2FCC0F990B02C0E2
:100BB00080E090E0CF910895FC012681211109C0C9
:100BC00021E0268341E060E972E08FEF93E00E942C
:100BD0009510909100048091FF03891728F480916B
:100BE00000049091FF0305C0809100049091FF03E1
:100BF0008058891B39F0E091FF03F0E0E353FC4F8C
:100C000086A901C080E0082E000C990B08950F936F
:100C10001F93CF93DF93EC018E8181110AC081E095
:100C20008E8321E041E060E972E08FEF93E00E9463
:100C300095109091FF0380910004981769F0E0915E
:100C4000FF03F0E0E353FC4F06A98091FF038F5FA1
:100C50008F778093FF0301C000E08985882341F0EE
:100C6000198667ED71E08FEF93E00E94831088870B
:100C70008885811133C08F81882399F18091FF038A
:100C8000909100048150891B8F77002E000C110B6E
:100C90008F3709F055C0809100048093FF031F82B5
:100CA00081E089872296D093E703C093E6031092F0
:100CB000D7038093D8031092DA031092D9031092CD
:100CC000DC031092DD038CEE93E00E94D7016AE012
:100CD00070E080E090E00E94000D32C067ED71E0AE
:100CE00002C06DED71E08FEF93E00E9483108823C6
:100CF00021F0802F000F990B24C080910004809375
:100D0000FF032296D093E703C093E6031092D70324
:100D100081E08093D8031092DA031092D9031092E5
:100D2000DC031092DD038CEE93E00E94D7016AE0B1
:100D300070E080E090E00E94000D80E090E001C053
:100D4000C801DF91CF911F910F91089584EE91E03A
:100D50000E94D51081E090E00895EF92FF920F93EA
:100D60001F93CF93DF938C01E42EEB01FE01F490EF
:100D7000FF2049F0D801ED91FC910280F381E02D34
:100D80006F2DC80109952196F110F0CFEE2031F0BA
:100D90006BE972E0C80102960E948A1281E090E03D
:100DA000DF91CF911F910F91FF90EF900895809167
:100DB000DE039091DF03059721F48FEC93E00C9410
:100DC0008A120895EDECF3E00396928F818F1286DC
:100DD00081E0838783E190E0958784871786108A76
:100DE0000C94060A8091DE039091DF03059721F0B1
:100DF00084E090E00E948111809100049091FF03B3
:100E0000891B8F7719F081E090E002C084E090E0C8
:100E10000E9481118091D70390E008958091DE03B4
:100E20009091DF03059721F48FEC93E00C948312EB
:100E30000895CF93DF93EC012396D093E703C093FB
:100E4000E6031092D70381E08093D8038FE090E00F
:100E50009093DA038093D9031092DC031092DD03A0
:100E600068EE73E080E090E00E94000D6CEE71E0AF
:100E70008FEC93E00E948A1268EE73E080E090E0CD
:100E80000E94000D61E082EA90E00E943A0984E04D
:100E900090E09093DF038093DE03809100048093C1
:100EA000FF038CEE93E00E94D70164E670E080E0DF
:100EB00090E00E94000D81E090E00E9481118091FD
:100EC00000049091FF03891B8F7739F78091E0032D
:100ED0009091E103C817D90789F08091E2039091BE
:100EE000E303C817D90769F08091E4039091E50303
:100EF000C817D90779F482E090E005C080E090E05F
:100F000002C081E090E0880F991FFC01E353FC4F81
:100F1000148A138A8091D70390E0DF91CF910895CE
:100F20005093D6034093D503FC01368725877093F1
:100F3000D4036093D303AC014D5F5F4F5093E7033D
:100F40004093E6031092D70321E02093D8032EE0CC
:100F500030E03093DA032093D9031092DC0310922F
:100F6000DD032091E0033091E103232B79F0209100
:100F7000E2033091E303232B61F02091E4033091ED
:100F8000E503232B79F422E030E005C020E030E0D7
:100F900002C021E030E0220F331FF901E353FC4F80
:100FA000548B438B0E9443098091D70390E00895AE
:100FB0000E942B118091D70390E008950E942B117D
:100FC0008091D70390E008950E942B118091D70360
:100FD00090E00895CF92DF92EF92FF920F931F93CC
:100FE000CF93DF93EC01F62EE42E8C010D5E1F4FA4
:100FF0006C0189E1C80ED11CD8018D919D918D01A4
:10100000009749F0DC01ED91FC910280F381E02D25
:101010006F2D099501C080E00C151D0519F088237E
:1010200059F317C0811115C0898D9A8D009789F0E9
:10103000DC01ED91FC910190F081E02D4E2D6F2DA2
:10104000DF91CF911F910F91FF90EF90DF90CF90A4
:101050000994DF91CF911F910F91FF90EF90DF9056
:10106000CF900895FC012685222319F06787408BD5
:1010700008950C94EA07FB01DA0184918D9331966F
:101080008111FBCF0895CF9390EE980F9F3510F408
:10109000682F10C0C82F65E28CE293E00E94831293
:1010A0004C2F50E060E070E02AE08CE293E00E9478
:1010B0003A1265E28CE293E0CF910C9483128DECAE
:1010C00093E00C945D1480EF91E00E94910E62E336
:1010D00070E080E090E00E94000D8AEF91E00E94B5
:1010E000910E62E370E080E090E00E94000D81E1EB
:1010F00092E00E94910E81E992E00E94910E8CE3B1
:1011000092E00E94910E68E472E08CE293E00E940B
:101110008A12609142057091430580914405909137
:10112000450542E00E94A40E85E592E00E94910EE2
:1011300081E992E00E94910E64EF71E080E090E01E
:101140000E94000D66E672E08CE293E00E948A1233
:1011500060913E0570913F05809140059091410559
:1011600042E00E94A40E80E792E00E94910E81E985
:1011700092E00E94910E64EF71E080E090E00E94A6
:10118000000D69E772E08CE293E00E948A126091A0
:10119000460570914705809148059091490542E0C8
:1011A0000E94A40E68E872E08CE293E00E948A122A
:1011B00081E992E00E94910E62E370E080E090E0AD
:1011C0000E94000D6AE18CE293E00E9483126FE8B6
:1011D00072E08CE293E00E949F0362E370E080E0A3
:1011E00090E00C94000DCF93DF93EC016115710535
:1011F00011F461EE71E08FEF93E00E948310888319
:1012000081E0DF91CF910895CF92DF92EF92FF922C
:101210000F931F93CF93DF936B01770FEE08FF08B7
:10122000F7FE1BC0EC016DE20E9483128C01442783
:101230005527BA014C195D096E097F092AE0CE01D4
:101240000E943A12800F911FDF91CF911F910F9151
:10125000FF90EF90DF90CF9008952AE0B701A601AC
:10126000DF91CF911F910F91FF90EF90DF90CF9082
:101270000C943A12462FEDECF3E023A922ABBC010B
:10128000CF010C94AD060F931F93CF93DF93CDB78F
:10129000DEB72D970FB6F894DEBF0FBECDBF8C0121
:1012A0008091D8038230F1F018F4813041F0A3C06E
:1012B000833009F45CC0843009F468C09CC060E0ED
:1012C0008AE491E00E943A09E091D303F091D403BB
:1012D000309709F484C0808180538A3008F47FC03D
:1012E00061E37EC060E070E0CE010D960E94F308DD
:1012F000882309F480C08D858823B1F160E08FE3F5
:1013000091E00E943A0962E972E08FEC93E00E945A
:101310008A126091D3037091D4036115710529F08D
:101320008FEC93E00E948A1206C06FEC73E0C80154
:1013300007960E946C0262E28FEC93E00E94831297
:101340006CE28FEC93E00E9483126091D503709160
:10135000D6038FEC93E00E9404096DE08FEC93E0DC
:101360000E94831283E00FC083E090E035C060E00C
:1013700070E0CE010D960E94F3088823E1F18D857F
:10138000882391F384E08093D80335C0AE014F5F8A
:101390005F4F65E371E0C80103960E943B08BE0100
:1013A0006F5F7F4FCE010D960E94F308882319F1DD
:1013B0008D858823C9F285E090E09093DF038093C8
:1013C000DE0321E041E0BE016F5F7F4F8FEF93E0CE
:1013D0000E94951081E090E00E9481110CC060E3B2
:1013E0008FEC93E00E9483126DE08FEC93E00E94FB
:1013F000831282E0C8CF2D960FB6F894DEBF0FBEE1
:10140000CDBFDF91CF911F910F910895809100047E
:101410009091FF03891B8F7741F0809100048093A6
:10142000FF038CEE93E00C94D70181E090E00C94E4
:101430008111CF93DF931F92CDB7DEB78091D80390
:10144000813019F08230C1F029C082E08093D80346
:1014500060E08BE291E00E943A096091D3037091C1
:10146000D4038FEC93E00E948A126AE972E08FEC59
:1014700093E00E948A1212C06DE972E0CE010196DB
:101480000E94F308882351F08981882319F00E9473
:10149000B00404C083E090E00E9481110F90DF91BE
:1014A000CF9108951F93CF93DF93EC018091D803E0
:1014B000813019F0823051F067C061E084E191E041
:1014C0000E943A0982E08093D8035EC08091FF03B6
:1014D000909100048150891B8F7791E0853008F04E
:1014E00090E09F8321E041E06FE972E08FEF93E0AD
:1014F0000E949510182F8091FF038F5F50E090E0BD
:1015000020E030E0AAE040910004481711F1E82FF4
:10151000F0E0E353FC4F46A9403219F4911105C0A5
:1015200015C04D3211F4992379F090ED940F9A3053
:1015300080F4A29FB001A39F700D11249B01240F82
:10154000311D2053310901C051E091E08F5F8F7749
:10155000DACF552319F03195219531093D832C833C
:1015600067ED71E08FEF93E00E9483108887198602
:10157000111103C084E090E002C081E090E0DF91AF
:10158000CF911F910C948111DF91CF911F910895FC
:101590000F931F93CF93DF931F92CDB7DEB78C01CC
:1015A0008091D803813019F08230B9F028C082E0F0
:1015B0008093D80360E08BE091E00E943A09F80143
:1015C000648175818FEC93E00E9404096BE972E0FD
:1015D0008FEC93E00E948A1212C060E070E0CE01AE
:1015E00001960E94F308882351F08981882319F01D
:1015F0000E94B00404C083E090E00E9481110F902B
:10160000DF91CF911F910F910895CF93DF931F9298
:10161000CDB7DEB78091D803813019F0823081F0E8
:1016200021C082E08093D8036AE18DEC93E00E94B0
:101630005D146BE972E08FEC93E00E948A1212C095
:1016400060E070E0CE0101960E94F308882351F01B
:101650008981882319F00E94B00404C083E090E0DF
:101660000E9481110F90DF91CF9108950F931F93E6
:10167000CF93DF9300D000D0CDB7DEB78C0180913F
:10168000D803823081F050F4813009F07CC061E0F1
:1016900080E091E00E943A0982E02AC08330D1F1D3
:1016A000843049F170C08DE089838AE08A831B828F
:1016B000BE016F5F7F4FCE0104960E94F30888231E
:1016C00009F461C08C81882311F160E08EEE90E016
:1016D0000E943A096091D5037091D6038FEC93E094
:1016E0000E9404096DE08FEC93E00E94831283E076
:1016F0008093D80348C060E070E0CE0104960E9459
:10170000F308882309F43FC08C81811115C083E060
:1017100090E037C060E070E0CE0104960E94F308CC
:10172000882389F18C81882391F361E082EE90E037
:101730000E943A0984E0DCCF8091E0039091E103BC
:10174000892B79F08091E2039091E303892B61F07A
:101750008091E4039091E503892B89F482E090E085
:1017600005C080E090E002C081E090E0880F991F02
:10177000FC01E353FC4F0E5F1F4F148B038B81E082
:1017800090E00E9481110F900F900F900F90DF91C9
:10179000CF911F910F9108958091D803813019F056
:1017A000823051F0089561E08AED90E00E943A099C
:1017B00082E08093D80308956091D3037091D4039D
:1017C00086EA92E00E94D510809100048093FF0386
:1017D00081E090E00C9481110F931F93CF93DF93DE
:1017E0001F92CDB7DEB78C018091D803813019F0FC
:1017F000823051F025C061E086ED90E00E943A0908
:1018000082E08093D8031CC060E070E0CE010196B6
:101810000E94F3088823A1F0D801ED91FC91048483
:10182000F585E02D63E070E0C80109958981882382
:1018300019F00E94B00404C083E090E00E9481117E
:101840000F90DF91CF911F910F9108950F931F93E8
:10185000CF93DF931F92CDB7DEB78C018091D80371
:10186000813019F0823051F025C061E082ED90E0C6
:101870000E943A0982E08093D8031CC060E070E0C7
:10188000CE0101960E94F3088823A1F0D801ED91C2
:10189000FC910484F585E02D60E070E0C8010995B5
:1018A0008981882319F00E94B00404C083E090E08D
:1018B0000E9481110F90DF91CF911F910F91089598
:1018C000DC011696ED91FC911797908115968C91FD
:1018D0008095892380830895833081F028F48130B6
:1018E00099F08230A1F008958730A9F08830B9F0DE
:1018F0008430D1F4809180008F7D03C0809180007E
:101900008F7780938000089584B58F7702C084B567
:101910008F7D84BD08958091B0008F7703C0809142
:10192000B0008F7D8093B00008951F93CF93DF9315
:10193000282F30E0F901E254FF4F8491F901E25879
:10194000FE4FD491F901E659FE4FC491CC23C1F06A
:10195000162F81110E946C0CEC2FF0E0EE0FFF1F90
:10196000E05AFE4FA591B4919FB7F894111104C0AD
:101970008C91D095D82302C0EC91DE2BDC939FBFD5
:10198000DF91CF911F910895CF93DF9390E0FC01F9
:10199000E258FE4F2491FC01E659FE4F84918823C2
:1019A00061F190E0880F991FFC01EC54FF4FC59145
:1019B000D491FC01E05AFE4FA591B491611109C088
:1019C0009FB7F8948881209582238883EC912E23F9
:1019D0000BC0623061F49FB7F8948881322F309544
:1019E00083238883EC912E2B2C939FBF06C08FB747
:1019F000F894E8812E2B28838FBFDF91CF91089533
:101A00008F929F92AF92BF92CF92DF92EF92FF920E
:101A10006B017C010E94CB114B015C01C114D1040C
:101A2000E104F104F1F00E94CB11DC01CB01881933
:101A30009909AA09BB09883E9340A105B10570F335
:101A400021E0C21AD108E108F10888EE880E83E08F
:101A5000981EA11CB11CC114D104E104F10419F7B2
:101A6000DDCFFF90EF90DF90CF90BF90AF909F9031
:101A70008F900895CF92DF92EF92FF92CF93DF93F2
:101A8000B091A204882311F0AB2F01C0A0E0809197
:101A9000A30490E0880F991F8A5A9E4FC090A80413
:101AA000D090A904E090AA04F090AB0420E030E0CC
:101AB000FC01C591D491E881EB23A90160E070E0BD
:101AC000EA130CC02F5F3F4F4C155D056E057F0577
:101AD00078F33FEF2FEF8FEF9FEF03C0322F252FCB
:101AE000CB01632F722FDF91CF91FF90EF90DF90AA
:101AF000CF900895AF92BF92DF92EF92FF920F9333
:101B00001F93CF93DF93EC01FB018081882309F4BD
:101B10003FC030E0E0E0F0E04217E1F1942FDE0159
:101B2000A90FB11D1496AC90B12CDB01AE0FBF1FF5
:101B3000AC910A2E000CBB0BAA16BB06A9F43111FE
:101B400001C0D92E3196DB01AE0FBF1F8C918111E0
:101B50000FC00115110511F0F801D082E114F10454
:101B6000B9F0F701908314C0311105C051E007C0EE
:101B700051E031E004C050E030E0E0E0F0E09F5F91
:101B80009F77552311F02913CACF4F5F4F77C4CFEA
:101B900081E001C080E0DF91CF911F910F91FF9014
:101BA000EF90DF90BF90AF90089540E0682F83E8FA
:101BB00094E00C94390481E00E94D50D8BE39FE101
:101BC0000197F1F70895CF93DF93823028F0909139
:101BD00092049860909392048093960410929704D4
:101BE00080E48093980480E18093990480E5809359
:101BF0009A0461E0809187040E94C40C809188045B
:101C00008F3F19F061E00E94C40C61E0809189046B
:101C10000E94C40CC3E8D4E09E0123583440809154
:101C2000920484FD03C084E090E002C088E090E06C
:101C30002196281739072CF461E08E810E94C40C8C
:101C4000EBCF8BE39DE00197F1F760E08091870493
:101C50000E94950C60E0809189040E94950C80910F
:101C600088048F3F19F060E00E94950C80919204E7
:101C700084FD20C063E083E894E00E940C04CBE480
:101C8000D6E4CE010197F1F763E083E894E00E9487
:101C90000C042197F1F763E083E894E00E940C04C0
:101CA00083E592E00197F1F762E083E894E00E9417
:101CB0000C0415C080620E94D50D8BE496E4019758
:101CC000F1F78091920480620E94D50D83E592E045
:101CD0000197F1F78091920480620E94D50D809166
:101CE000920480620E94D50D84E0809393048CE07E
:101CF0000E94D50D0E94DB0D82E08093940486E063
:101D0000DF91CF910C94D50DE1E080919604811183
:101D1000E0E0E195F0E0ED57FB4F848980680C949A
:101D2000D50DCF93DF93BC018CE293E00E949F031B
:101D3000EC016FE872E08CE293E00E949F038C0F4D
:101D40009D1FDF91CF9108958F929F92AF92BF9286
:101D5000CF92DF92EF92FF920F931F93CF93DF9377
:101D60006B017C01142F9B01AC010E94B41B8823E2
:101D700019F069EB72E027C046015701E894B7F803
:101D80002FEF3FEF4FE75FE7C501B4010E94B41B9F
:101D900081110DC02FEF3FEF4FE75FE7C501B401A1
:101DA0000E945B1918161CF46DEB72E00CC02FEF4B
:101DB0003FEF4FE75FE4C701B6010E94AF1B181663
:101DC00094F461EC72E08CE293E0DF91CF911F918B
:101DD0000F91FF90EF90DF90CF90BF90AF909F90CA
:101DE0008F900C949F032FEF3FEF4FE75FECC701FD
:101DF000B6010E945B1987FDE4CF20E030E0A90125
:101E0000C701B6010E945B1987FF0BC06DE28CE22F
:101E100093E00E948312EC01F7FAF094F7F8F09443
:101E200002C0C0E0D0E000E060E070E080E09FE34E
:101E3000101741F020E030E040E251E40E940E1B18
:101E40000F5FF6CFA70196010E94A21A6B017C01D9
:101E50000E94801B4B015C012AE0AB01BC018CE2BB
:101E600093E00E943A12C80FD91F1123C9F1C5018E
:101E7000B4010E9460199B01AC01C701B6010E9428
:101E8000A11A6B017C016EE28CE293E00E94831246
:101E9000C80FD91F20E030E040E251E4C701B6018D
:101EA0000E94C1194B015C010E94801B6B01E12C57
:101EB000F12C2AE0B701A6018CE293E00E943A12CD
:101EC000C80FD91FC701B6010E9460199B01AC0160
:101ED000C501B4010E94A11A6B017C011150D1F619
:101EE000CE01DF91CF911F910F91FF90EF90DF9086
:101EF000CF90BF90AF909F908F900895CF92DF9238
:101F0000EF92FF920F931F93CF93DF93CDB7DEB77E
:101F1000C054D1400FB6F894DEBF0FBECDBF2FB76F
:101F2000F8948091C9039091CA03A091CB03B0911A
:101F3000CC032FBF4091A4045091A5046091A60446
:101F40007091A7048C019D01041B150B260B370B08
:101F5000B901A801403D57406105710518F4809111
:101F6000AC04C1C08093A4049093A504A093A604DC
:101F7000B093A70410929F0410929E0410929D04A7
:101F800010929C0410929B0462E08091A0040E9435
:101F9000C40C61E070E080E090E00E94000D61E020
:101FA0008091A0040E94C40C60E08091A0040E9473
:101FB000950C8091A1048551823028F48BE291E147
:101FC0000197F1F706C064E170E080E090E00E94C4
:101FD000000D62E08091A0040E94C40C8BEE90E0A2
:101FE0000197F1F7F89480E00E943A0D6F3F7F4F20
:101FF0008F4F9F4F21F41092AC04789441C081E040
:102000000E943A0D6F3F7F4F8F4F9F4FA1F38E017C
:102010000F5F1F4F6E018FEBC81A8EEFD80A780141
:1020200080E00E943A0DF70160837183828393837D
:1020300081E00E943A0DF70164837583868397835C
:10204000F8E0EF0EF11CEC14FD0451F7789420E059
:1020500030E0F801C080D180E280F3804481558176
:1020600066817781FFEFCF16DF06EF06FF0631F0BE
:102070004F3F8FEF58076807780721F41092AC04A0
:1020800080E031C0F90183E0F595E7958A95E1F7A5
:10209000E556FB4F8081880FC416D506E606F70685
:1020A00008F4816080832F5F3F4F085F1F4F283205
:1020B000310579F620919F0430E040919B04809196
:1020C0009C0490E0840F911D40919D04840F911D0C
:1020D00040919E04840F911D99272817390771F6A6
:1020E00081E08093AC04C05CDE4F0FB6F894DEBF95
:1020F0000FBECDBFDF91CF911F910F91FF90EF9059
:10210000DF90CF900895EF92FF920F931F93FC0101
:1021100021814081E12CF12C00E010E00E947A0D39
:102120001F910F91FF90EF900895AF92BF92CF92C1
:10213000DF92EF92FF920F931F93CF93DF9300D024
:10214000CDB7DEB76C01B42EA22EFC0121814081F7
:10215000CE0101967C018E010E5F1F4FC6010E94C9
:102160007A0D8823A9F0AA2051F0BB2021F0998193
:102170009F5F9F7701C09A81F601908309C0BB20C1
:1021800021F099819F5F9F7701C09A81F601918329
:102190000F900F90DF91CF911F910F91FF90EF90D3
:1021A000DF90CF90BF90AF900895CF92DF92EF92E3
:1021B000FF920F931F93CF93DF9300D0CDB7DEB77D
:1021C0006B01209100044091FF03BE016E5F7F4FC1
:1021D0007B0100E010E0BC018FEF93E00E947A0DDC
:1021E000811102C080E02CC04A814F5F4A83209158
:1021F0000004E12CF12C8E010F5F1F4F6AEE71E09D
:102200008FEF93E00E947A0D882361F39A812981F0
:102210002F7730E0F601BF016C197D09492F50E09E
:102220004217530749F0DA01A353BC4FD6964C919D
:1022300041939F5F9F77EFCFF601E60FF71F108264
:102240000F900F90DF91CF911F910F91FF90EF9022
:10225000DF90CF900895CF93DF938091DB038823A5
:1022600009F44CC09091DC038091DD03981709F4C8
:1022700045C0C091FF03D09100046FE872E08CE28A
:1022800093E00E949F034C2F50E060E070E02AE052
:102290008CE293E00E943A1265EC72E08CE293E0EB
:1022A0000E948A124D2F50E060E070E02AE08CE23C
:1022B00093E00E943A126EE38CE293E00E94831254
:1022C000DC1751F0EC2FF0E0E353FC4F86A90E949D
:1022D0004308CF5FCF77F4CF6FE872E08CE293E0F2
:1022E0000E949F034091DD036091DC038DEC93E03D
:1022F0000E94EA071092DC031092DD03DF91CF9178
:1023000008958130910539F02091D9033091DA0395
:102310002230310579F08093D70381E090E09093EB
:10232000DA038093D9031092E7031092E6038093B7
:10233000D80308951092DF031092DE03ECCFCF9202
:10234000DF92EF92FF920F931F93CF93DF936C0175
:102350007A018B01C0E0D0E0CE15DF0581F0D80115
:102360006D918D01D601ED91FC910190F081E02DF0
:10237000C6010995892B11F02196EECF7E01C70188
:10238000DF91CF911F910F91FF90EF90DF90CF9051
:1023900008950E94BF1B3FB7F89480914B05909120
:1023A0004C05A0914D05B0914E0526B5A89B05C0E2
:1023B0002F3F19F00196A11DB11D3FBFBA2FA92FC4
:1023C000982F8827820F911DA11DB11DBC01CD0141
:1023D00042E0660F771F881F991F4A95D1F708952D
:1023E0001F920F920FB60F9211242F933F938F934A
:1023F0009F93AF93BF938091C9039091CA03A0911B
:10240000CB03B091CC0330914A0523E0230F2D3745
:1024100020F40196A11DB11D05C026E8230F0296E8
:10242000A11DB11D20934A058093C9039093CA034F
:10243000A093CB03B093CC0380914B0590914C05B6
:10244000A0914D05B0914E050196A11DB11D80933F
:102450004B0590934C05A0934D05B0934E05BF914D
:10246000AF919F918F913F912F910F900FBE0F9041
:102470001F9018958F929F92AF92BF92EF92FF920A
:102480000F931F93CF93DF93CDB7DEB7A1970FB60E
:10249000F894DEBF0FBECDBF7C01FA01CB0119A2BB
:1024A000223008F42AE08E010F5D1F4F822E912CFE
:1024B000A12CB12CBF01A50194010E947F1AF90142
:1024C000CA01015011096A3014F4605D01C0695CF1
:1024D000D8016C93232B242B252B61F7B801C7015E
:1024E0000E949F03A1960FB6F894DEBF0FBECDBF2A
:1024F000DF91CF911F910F91FF90EF90BF90AF9020
:102500009F908F900895DC01ED91FC910190F081F6
:10251000E02D09940C949F03CF92DF92FF920F93CA
:102520001F93CF93DF93CDB7DEB72F970FB6F894F5
:10253000DEBF0FBECDBF8C016C0182E0C80ED11C86
:10254000AE014F5F5F4F6DE970E0C6010E943B082E
:10255000BE016F5F7F4F8FEF93E00E948310F82ED4
:10256000882349F0D801ED91FC910484F585E02D94
:1025700062E070E01AC0AE014F5F5F4F66E970E045
:10258000C6010E943B08BE016F5F7F4F8FEF93E053
:102590000E948310F82E882379F0D801ED91FC91E8
:1025A0000484F585E02D63E070E0C8010995809111
:1025B00000048093FF034DC0AE014F5F5F4F6BE897
:1025C00070E0C6010E943B08BE016F5F7F4F8FEF36
:1025D00093E00E948310F82E811112C0AE014F5F6C
:1025E0005F4F66E870E0C6010E943B08BE016F5F66
:1025F0007F4F8FEF93E00E948310F82E882349F0DD
:10260000D801ED91FC910484F585E02D60E070E047
:10261000CCCFAE014F5F5F4F6FE770E0C6010E9405
:102620003B08BE016F5F7F4F8FEF93E00E948310E6
:10263000F82E882371F0809100048093FF03D80165
:10264000ED91FC910484F585E02D62E070E0C80115
:1026500009958F2D2F960FB6F894DEBF0FBECDBF14
:10266000DF91CF911F910F91FF90DF90CF90089550
:1026700002970C948C122091D9033091DA032A30FE
:10268000310541F02B30310539F02930310531F475
:102690000C94EC0B0C94260C0C94CC0B0895029724
:1026A0000C943B130F931F93CF93DF93CDB7DEB7FB
:1026B0002F970FB6F894DEBF0FBECDBF8C010E5F13
:1026C0001F4FAE014F5F5F4F62E770E0C8010E948D
:1026D0003B08BE016F5F7F4F8FEF93E00E94831036
:1026E000882331F084E090E09093DF038093DE0351
:1026F000AE014F5F5F4F68E670E0C8010E943B0883
:10270000BE016F5F7F4F8FEF93E00E948310182F01
:10271000882399F021E041E0BE016F5F7F4F8FEF8A
:1027200093E00E9495108CEE93E00E94D70185E023
:1027300090E09093DF038093DE03812F2F960FB6F6
:10274000F894DEBF0FBECDBFDF91CF911F910F91E7
:10275000089502970C9452132091D9033091DA0313
:102760002130310521F02431310521F008956093A5
:10277000000408950C94360B02970C94AC13029746
:102780000C94C2132091D9033091DA03253031051E
:10279000A1F038F42130310559F02430310559F0D9
:1027A00008952630310559F02730310551F008954C
:1027B0006093000408950C94190A0C94050B0C9472
:1027C000520A0C94C80A2091D9033091DA032E30B2
:1027D000310549F02331310541F02130310539F41B
:1027E0006093000408950C9443090C94060A08951C
:1027F00003970C94E313EF92FF921F93CF93DF9311
:10280000CDB7DEB72C970FB6F894DEBF0FBECDBFA5
:1028100003967C01AE014F5F5F4F6DEA70E00E944E
:102820003B0811E08091DE039091DF03059709F0EA
:1028300010E020E040E0BE016F5F7F4F8FEF93E03C
:102840000E949510812351F124E030E03093DF03A2
:102850002093DE032091E0033091E103E216F306BA
:1028600089F02091E2033091E303E216F30669F068
:102870002091E4033091E503E216F30679F422E0B7
:1028800030E005C020E030E002C021E030E0220F5F
:10289000331FF901E353FC4F148A138A2C960FB6A9
:1028A000F894DEBF0FBECDBFDF91CF911F91FF9097
:1028B000EF90089503970C94FB131F93CF93DF932E
:1028C000EC01162F8E85882319F0862F0E9443086D
:1028D000612FCE014F96DF91CF911F910C94E601AD
:1028E00002970C945D140F931F93CF93DF93ECE248
:1028F000F3E01382128288EE93E0A0E0B0E08483DC
:102900009583A683B78384E091E09183808385ECEF
:1029100090E09587848784EC90E09787868780ECA9
:1029200090E0918B808B81EC90E0938B828B82EC9A
:1029300090E0958B848B86EC90E0978B868B118E44
:10294000128E138E148EE5EBF4E002ED11E011838C
:1029500000831282138214821582EDEAF4E086E18C
:1029600091E0918380838EE291E09383828315824C
:102970001482EBEBF4E01183008312821382148241
:102980001582E1ECF4E01183008312821382148239
:102990001582E7ECF4E01183008312821382148223
:1029A0001582EDECF4E0118300831282138214820D
:1029B0001582CDECD3E01D821C8280E491E09983E6
:1029C00088838AE491E09B838A8386E391E098A3DD
:1029D0008F8F1AA619A61CA61BA61EA61DA618AA8E
:1029E0001FA61AAA1BAA8CEE93E09DAB8CAB61E0EC
:1029F00083E00E94C40C61E083E00E94950CE1E852
:102A0000F1E0E491ECA3EDE6F1E0E491F0E0EE0F0B
:102A1000FF1FE05AFE4F859194919EA38DA360E025
:102A200082E00E94C40C61E082E00E94950CE0E824
:102A3000F1E0E491E9A3ECE6F1E0E491F0E0EE0FDF
:102A4000FF1FEA5AFE4F859194919BA38AA3D8A7B2
:102A5000CFA31F86188A81E08A871B8681E090E0D9
:102A60009D878C872FB7F8948091C9039091CA03F2
:102A7000A091CB03B091CC032FBF8B8F9C8FAD8FD8
:102A8000BE8F1C8A1B8A1E8A1D8A188E1F8AE3ED40
:102A9000F4E0118300831282138214821582E9ED1F
:102AA000F4E0118300831282138214821582EFED09
:102AB000F4E0118300831282138214821582E5EE02
:102AC000F4E0118300831282138214821582EBEEEC
:102AD000F4E0118300831282138214821582EBEFDB
:102AE000F4E0118300831282138214821582E1EFD5
:102AF000F4E086E591E0918380838EE691E0938314
:102B00008283E5E0F5E01183008312821382148250
:102B10001582E1E0F5E086E791E0918380838CE81F
:102B200091E093838283EBE0F5E0118300831282CE
:102B3000138214821582E1E1F5E011830083128291
:102B4000138214821582E7E1F5E01183008312827B
:102B5000138214821582ECE2F5E011830083128265
:102B6000138214821582EDE1F5E084E991E091830E
:102B700080838EEB91E09483838310870783118693
:102B8000128613861486E2E3F5E011830083128235
:102B9000138214821582E8E3F5E011830083128228
:102BA000138214821582ABE9B4E086E015968C930B
:102BB00015978BE016968C931697E4E8F1E0E49174
:102BC0001796EC931797E0E7F1E0E4911896EC93F1
:102BD000189740E85EE360E070E01D964D935D93CA
:102BE0006D937C935097E3E8F4E01382128226EC15
:102BF00031E0318320839CE094839FEF958386832B
:102C000085E0878384E0808783E0818782E0828714
:102C10001386148615861686178681E0DF91CF917C
:102C20001F910F910C94E30D789484B5826084BD5C
:102C300084B5816084BD85B5826085BD85B58160C0
:102C400085BD80916E00816080936E00109281003E
:102C500080918100826080938100809181008160F9
:102C600080938100809180008160809380008091BA
:102C7000B10084608093B1008091B0008160809346
:102C8000B00080917A00846080937A0080917A000D
:102C9000826080937A0080917A00816080937A00CC
:102CA00080917A00806880937A001092C10060E081
:102CB00089E00E94C40C60E088E00E94C40CE091AE
:102CC0003C03F0913D0382E08083E0913803F09172
:102CD00039031082E0913A03F0913B038FEC80833B
:102CE00010924403E0914003F091410386E0808319
:102CF000E0913E03F0913F03808180618083E09109
:102D00003E03F0913F03808188608083E0913E0321
:102D1000F0913F03808180688083E0913E03F091D1
:102D20003F0380818F7D808362E08091A0040E94B8
:102D3000C40C2FB7F8948091C9039091CA03A09155
:102D4000CB03B091CC032FBF805D9740A109B1099F
:102D50008093A4049093A504A093A604B093A70421
:102D600060E08EE00E94C40C82E00E94E30D67ECFC
:102D700072E083E894E00E948A1268EE73E080E0DB
:102D800090E00E94000D0E94DB0D0E94840E6FEC0B
:102D900072E083E894E00E948A1268EE73E080E0BB
:102DA00090E00E94000D0E94DB0D0E94840E6CEDED
:102DB00072E083E894E00E948A1268EE73E080E09B
:102DC00090E00E94000D0E94DB0D0E94840E68EED0
:102DD00073E080E090E00E94000D62EE72E083E814
:102DE00094E00E948A1260E08EE00E94C40C61E0D0
:102DF00087E00E94C40C20E4C22EC6ECD0E006E8B6
:102E000011E032E7E32E31E0F32EC0927C00809196
:102E10007A00806480937A0080917A0086FDFCCFEE
:102E2000609178008091790070E0782B072E000C7B
:102E3000880B990B0E94621920E030EC4FE754E4B4
:102E40000E940E1B20E030E040EA50E40E94C119CD
:102E500020E030E040E05FE30E94C1196093460546
:102E60007093470580934805909349050E947E0F13
:102E7000882309F440C08091A1048B30E0F18D30AB
:102E8000C0F085518230B8F5D0909D046D2D6F77DC
:102E900070E0762F662780919E04682B80E090E09A
:102EA0000E9460192DEC3CEC4CEC5DE30E94C119D2
:102EB0001EC0D0909D0460919E046F7070E080E011
:102EC00090E00E9462192DEC3CEC4CEC5DE30E941A
:102ED000C1194B015C016D2D70E080E090E00E9413
:102EE00060199B01AC01C501B4010E94A21AD7FE72
:102EF00006C0905804C060E070E080EC9FE76093EB
:102F000042057093430580934405909345050E94C4
:102F10007E0F8823C1F18091A1048B30A0F18D3008
:102F2000A8F08551823078F560919B0470919C04E3
:102F300076276727762780E090E00E9460192DECC5
:102F40003CEC4CEC5DE30E94C11921C060919C04F3
:102F500070E080E090E00E9462192DEC3CEC4CECBB
:102F60005DE30E94C1194B015C0160919B0470E01C
:102F700080E090E00E9462199B01AC01C501B401A0
:102F80000E94A21A04C060E070E080EC9FE76093AA
:102F90003E0570933F05809340059093410568E49A
:102FA00072E08CE293E00E948A1260914205709177
:102FB0004305809144059091450542E00E94A40E8E
:102FC00085E592E00E94910E81E992E00E94910EC7
:102FD00064EF71E080E090E00E94000D66E672E030
:102FE0008CE293E00E948A1260913E0570913F0549
:102FF000809140059091410542E00E94A40E81E736
:1030000092E00E94910E81E992E00E94910E64EF9D
:1030100071E080E090E00E94000D69E772E08CE2D0
:1030200093E00E948A126091460570914705809155
:1030300048059091490542E00E94A40E69E872E0BB
:103040008CE293E00E948A1281E992E00E94910E44
:1030500020E030E040E65FE360914605709147056F
:1030600080914805909149050E94AF1B18160CF0FD
:10307000FDC020E030E048EC51E4609142057091E1
:10308000430580914405909145050E945B1987FF97
:10309000FEC020E030E044E352E460913E057091D0
:1030A0003F0580914005909141050E945B1987FF83
:1030B000EEC0FE018491F801B490F701D490DD20B8
:1030C00009F4E8C081110E946C0CED2DF0E0EE0FC8
:1030D000FF1FEA5AFE4FA591B4918C918B2109F400
:1030E000D9C060E087E00E94950C0E94DB0D0E9431
:1030F000840E68E173E083E894E00E948A1264E63B
:1031000070E080E090E00E94000DD2C020E030E04E
:1031100048EC51E46091420570914305809144056B
:10312000909145050E945B1987FFB1C020E030E017
:1031300044E352E460913E0570913F058091400563
:10314000909141050E945B1987FFA1C080EF91E03B
:103150000E94910E62E370E080E090E00E94000D1A
:103160008AEF91E00E94910E62E370E080E090E0CF
:103170000E94000D8FEE92E00E94910E81E992E094
:103180000E94910E88E193E00E94910E62E370E04C
:1031900080E090E00E94000D68E472E08CE293E031
:1031A0000E948A1260914205709143058091440506
:1031B0009091450542E00E94A40E85E592E00E94B0
:1031C000910E81E992E00E94910E64EF71E080E03F
:1031D00090E00E94000D66E672E08CE293E00E94AF
:1031E0008A1260913E0570913F0580914005909153
:1031F000410542E00E94A40E80E792E00E94910EF9
:1032000081E992E00E94910E64EF71E080E090E02D
:103210000E94000D69E772E08CE293E00E948A123E
:103220006091460570914705809148059091490548
:1032300042E00E94A40E68E872E08CE293E00E94F3
:103240008A1281E992E00E94910E6AE18CE293E099
:103250000E9483126FE872E08CE293E00E949F0369
:1032600062E370E080E090E00E94000D20E030E03A
:1032700040E65FE3609146057091470580914805FF
:10328000909149050E94AF1B18160CF03FCF0E9489
:10329000CC01BBCD61E087E00E94950C0E94840EBA
:1032A0000E94DB0D62E273E083E894E00E948A12E0
:1032B0000E946308CDCE0E949D1908F481E0089514
:1032C000E89409C097FB3EF49095809570956195C0
:1032D0007F4F8F4F9F4F9923A9F0F92F96E9BB2776
:1032E0009395F695879577956795B795F111F8CFF2
:1032F000FAF4BB0F11F460FF1BC06F5F7F4F8F4F5D
:103300009F4F16C0882311F096E911C0772321F052
:103310009EE8872F762F05C0662371F096E8862FEA
:1033200070E060E02AF09A95660F771F881FDAF741
:10333000880F9695879597F90895990F0008550F6E
:10334000AA0BE0E8FEEF16161706E807F907C0F02B
:1033500012161306E407F50798F0621B730B840B33
:10336000950B39F40A2661F0232B242B252B21F40D
:1033700008950A2609F4A140A6958FEF811D811DAD
:1033800008950E94D4190C94451A0E94371A38F0F7
:103390000E943E1A20F0952311F00C942E1A0C94E2
:1033A000341A11240C94791A0E94561A70F3959FBE
:1033B000C1F3950F50E0551F629FF001729FBB272C
:1033C000F00DB11D639FAA27F00DB11DAA1F649FC8
:1033D0006627B00DA11D661F829F2227B00DA11D7B
:1033E000621F739FB00DA11D621F839FA00D611D01
:1033F000221F749F3327A00D611D231F849F600D22
:10340000211D822F762F6A2F11249F5750409AF04A
:10341000F1F088234AF0EE0FFF1FBB1F661F771FD6
:10342000881F91505040A9F79E3F510580F00C94A1
:103430002E1A0C94791A5F3FE4F3983ED4F38695E4
:1034400077956795B795F795E7959F5FC1F7FE2B41
:10345000880F911D9695879597F9089597F99F671D
:1034600080E870E060E008959FEF80EC089500240C
:103470000A941616170618060906089500240A94D9
:1034800012161306140605060895092E0394000C5F
:1034900011F4882352F0BB0F40F4BF2B11F460FFEE
:1034A00004C06F5F7F4F8F4F9F4F089557FD905817
:1034B000440F551F59F05F3F71F04795880F97FBF8
:1034C000991F61F09F3F79F08795089512161306B2
:1034D0001406551FF2CF4695F1DF08C016161706E1
:1034E0001806991FF1CF8695710561050894089516
:1034F000E894BB2766277727CB0197F90895A1E2C7
:103500001A2EAA1BBB1BFD010DC0AA1FBB1FEE1F5D
:10351000FF1FA217B307E407F50720F0A21BB30BA8
:10352000E40BF50B661F771F881F991F1A9469F724
:1035300060957095809590959B01AC01BD01CF0180
:1035400008955058BB27AA270E94B91A0C94451A0F
:103550000E94371A38F00E943E1A20F039F49F3F3B
:1035600019F426F40C94341A0EF4E095E7FB0C944D
:103570002E1AE92F0E94561A58F3BA1762077307DA
:103580008407950720F079F4A6F50C94781A0EF4C8
:10359000E0950B2EBA2FA02D0B01B90190010C0163
:1035A000CA01A0011124FF27591B99F0593F50F47B
:1035B000503E68F11A16F040A22F232F342F4427D3
:1035C000585FF3CF469537952795A795F0405395CB
:1035D000C9F77EF41F16BA0B620B730B840BBAF09B
:1035E0009150A1F0FF0FBB1F661F771F881FC2F706
:1035F0000EC0BA0F621F731F841F48F4879577951A
:103600006795B795F7959E3F08F0B0CF9395880FD3
:1036100008F09927EE0F9795879508950E94221B31
:103620000C94451A0E943E1A58F00E94371A40F036
:1036300029F45F3F29F00C942E1A51110C94791A39
:103640000C94341A0E94561A68F39923B1F3552347
:1036500091F3951B550BBB27AA27621773078407A5
:1036600038F09F5F5F4F220F331F441FAA1FA9F33B
:1036700035D00E2E3AF0E0E832D091505040E69529
:10368000001CCAF72BD0FE2F29D0660F771F881F8A
:10369000BB1F261737074807AB07B0E809F0BB0B7D
:1036A000802DBF01FF2793585F4F3AF09E3F510591
:1036B00078F00C942E1A0C94791A5F3FE4F3983E3C
:1036C000D4F3869577956795B795F7959F5FC9F77A
:1036D000880F911D9695879597F90895E1E0660FFB
:1036E000771F881FBB1F621773078407BA0720F074
:1036F000621B730B840BBA0BEE1F88F7E0950895DD
:103700000E945E1A88F09F5798F0B92F9927B751F9
:10371000B0F0E1F0660F771F881F991F1AF0BA9575
:10372000C9F714C0B13091F00E94781AB1E0089541
:103730000C94781A672F782F8827B85F39F0B93F33
:10374000CCF3869577956795B395D9F73EF4909528
:103750008095709561957F4F8F4F9F4F08950E9480
:103760009D1908F48FEF08950E949D19880B990BFD
:103770000895EE0FFF1F0590F491E02D099481E06C
:0C37800090E0F8940C94C41BF894FFCF68
:10378C00000000005D019F11F400AA012501030156
:10379C001701000000001C0258033F032603080316
:1037AC0043023F027E033B138C12FEFF00004F13BB
:1037BC00381300000000D701C802E6010000000029
:1037CC0032085D14AD06FEFF000070149F116902F3
:1037DC005102000000001D055F0847050205DC05CD
:1037EC007605A6060706DE07C213FEFF0000BF1310
:1037FC00F904000000005F0269026902D807840323
:10380C0052025502AC135213FEFF0000BC13A91355
:10381C000000000069026902E4075502B504B40413
:10382C009007D804D7040E07D706D604F206A905CC
:10383C00E206B8041907FB13E313FDFF0000F813AD
:10384C005A14000000008C049F1169025102000000
:10385C0000006C023B0D000D0A0D0A2B000D0A0D29
:10386C000A4F4B0052454144222C22002B2B2B009B
:10387C0041542B434D47463D310041542B434D475A
:10388C00533D2B3233333230333639333231380DFA
:10389C0000414C4C20434F4E444954494F4E532009
:1038AC00415245205355495441424C4520464F52B4
:1038BC002049525249474154494F4E004D4F544FA5
:1038CC0052204953204F4E0054454D5045524154BF
:1038DC005552453D0020446567726565735F6365AD
:1038EC006C736975730048554D49444954593D00F2
:1038FC002050657263656E7400534F494C5F4D4F99
:10390C004953545552453D0020566F6C7473000D4D
:10391C000A0022544350222C2200220D003E002B80
:10392C00434D474C3A002B434C43433A20312C3106
:10393C002C342C302C302C22006E616E00696E669B
:10394C00006F766600200057454C434F4D450054A0
:10395C004F2045564552475245454E004641524D23
:10396C00530053595354454D20524541445900413D
:10397C0020434F4E444954494F4E20495320554EF5
:10398C005355495441424C4520464F5220495252BE
:10399C0049474154494F4E004D4F544F52204F46CA
:0C39AC0046004D4F544F52204F4E00007B
:107E0000112484B714BE81FFF0D085E080938100F7
:107E100082E08093C00088E18093C10086E0809377
:107E2000C20080E18093C4008EE0C9D0259A86E02C
:107E300020E33CEF91E0309385002093840096BBD3
:107E4000B09BFECF1D9AA8958150A9F7CC24DD24C4
:107E500088248394B5E0AB2EA1E19A2EF3E0BF2EE7
:107E6000A2D0813461F49FD0082FAFD0023811F036
:107E7000013811F484E001C083E08DD089C08234E0
:107E800011F484E103C0853419F485E0A6D080C0E4
:107E9000853579F488D0E82EFF2485D0082F10E0AE
:107EA000102F00270E291F29000F111F8ED06801E7
:107EB0006FC0863521F484E090D080E0DECF843638
:107EC00009F040C070D06FD0082F6DD080E0C81688
:107ED00080E7D80618F4F601B7BEE895C0E0D1E017
:107EE00062D089930C17E1F7F0E0CF16F0E7DF06D8
:107EF00018F0F601B7BEE89568D007B600FCFDCFD4
:107F0000A601A0E0B1E02C9130E011968C91119780
:107F100090E0982F8827822B932B1296FA010C0160
:107F200087BEE89511244E5F5F4FF1E0A038BF0790
:107F300051F7F601A7BEE89507B600FCFDCF97BE46
:107F4000E89526C08437B1F42ED02DD0F82E2BD052
:107F50003CD0F601EF2C8F010F5F1F4F84911BD097
:107F6000EA94F801C1F70894C11CD11CFA94CF0C13
:107F7000D11C0EC0853739F428D08EE10CD085E9AC
:107F80000AD08FE07ACF813511F488E018D01DD067
:107F900080E101D065CF982F8091C00085FFFCCF94
:107FA0009093C60008958091C00087FFFCCF809118
:107FB000C00084FD01C0A8958091C6000895E0E648
:107FC000F0E098E1908380830895EDDF803219F02E
:107FD00088E0F5DFFFCF84E1DECF1F93182FE3DFCA
:107FE0001150E9F7F2DF1F91089580E0E8DFEE27F6
:047FF000FF270994CA
:027FFE00040479
:0400000300007E007B
:00000001FF
